:0300000002089E55
:0C089E00787FE4F6D8FD7581090208E5BA
:040AB1000208000037
:10080000E4F580F590F5A075B0F0120A837F5712D9
:100810000A9B120A4D7F65120A9B120A4D7F6C12C9
:100820000A9B120A4D7F63120A9B120A4D7F6F12B8
:100830000A9B120A4D7F6D120A9B120A4D7F6512A8
:100840000A9B120A4D120A697F45120A9B7F4E12BB
:100850000A9B7F54120A9B7F45120A9B7F52120A01
:100860009B7F20120A9B7F4E120A9B7F6F120A9B6E
:100870007F2E120A9B120A4DD2B4D2B5D2B6C2B3A1
:10088000C2B2C2B1C2B020B40512092A80EA20B5B2
:0E0890000512098B80E220B6DF1209EC80DA37
:100A83007F387E00120A6D7F0C7E00120A6D120AF7
:080A9300697F807E00020A6DFC
:100A9B00D2908FA0D2917F967E00120A51C2917F85
:060AAB00967E00020A51D4
:040A69007F017E008B
:100A6D00C2908FA0D2917F967E00120A51C2917FC3
:060A7D00967E00020A5102
:040A4D007F407E4B1D
:100A5100E4FDFCC3ED9FEE6480F8EC6480985007E0
:070A61000DBD00010C80EC4B
:010A6800226B
:10092A00D2B3D2B2D2B1D2B0C2B020B40F120A69D5
:10093A00D2927F31120A9B120A4DC292D2B0C2B130
:10094A0020B40F120A69D2927F34120A9B120A4DFE
:10095A00C292D2B1C2B220B40F120A69D2927F37C0
:10096A00120A9B120A4DC292D2B2C2B320B40F121B
:10097A000A69D2927F2A120A9B120A4DC292D2B3F4
:01098A00224A
:10098B00D2B3D2B2D2B1D2B0C2B020B50F120A6973
:10099B00D2927F32120A9B120A4DC292D2B0C2B1CE
:1009AB0020B50F120A69D2927F35120A9B120A4D9B
:1009BB00C292D2B1C2B220B50F120A69D2927F385D
:1009CB00120A9B120A4DC292D2B2C2B320B50F12B9
:1009DB000A69D2927F30120A9B120A4DC292D2B38D
:0109EB0022E9
:1009EC00D2B3D2B2D2B1D2B0C2B020B60F120A6911
:1009FC00D2927F33120A9B120A4DC292D2B0C2B16C
:100A0C0020B60F120A69D2927F36120A9B120A4D37
:100A1C00C292D2B1C2B220B60F120A69D2927F39F9
:100A2C00120A9B120A4DC292D2B2C2B320B60F1256
:100A3C000A69D2927F23120A9B120A4DC292D2B338
:010A4C002287
:1008AA00020800E493A3F8E493A34003F68001F25C
:1008BA0008DFF48029E493A3F85407240CC8C3334F
:1008CA00C4540F4420C8834004F456800146F6DF1E
:1008DA00E4800B0102040810204080900AB1E47EF3
:1008EA00019360BCA3FF543F30E509541FFEE49313
:1008FA00A360010ECF54C025E060A840B8E493A3DA
:10090A00FAE493A3F8E493A3C8C582C8CAC583CA04
:10091A00F0A3C8C582C8CAC583CADFE9DEE780BEBC
:010AB5000040
:00000001FF
