:030000000208D41F
:0C08D400787FE4F6D8FD75810902091B4D
:0409C4000208000025
:10080000E4F580F590F5A0F5B0D2921209607F571B
:100810001209987F651209987F6C1209987F6312FC
:1008200009987F6F1209987F6D1209987F651209E8
:10083000987F007E741209807F2012099812097C2B
:100840007F5412099812097C7F6F12099812097C53
:100850007F017E001209AE7F421209987F61120962
:10086000987F6E1209987F641209987F691209981F
:100870007F721209987F6D1209987F611209987F23
:10088000C07E001209AE7F551209987F6E1209983A
:100890007F691209987F761209987F651209987FFF
:1008A000721209987F731209987F691209987F74F0
:1008B0001209987F7912099812097C12097C120991
:1008C0007C12097C12097C12097C12097C7F407E13
:0408D0004B0209804E
:100960007F387E001209AE7F0C7E001209AE7F0137
:0C0970007E001209AE7F807E000209AEFE
:10099800D2908FA0D2917F967E00120980C2917F5B
:0609A800967E00020980AA
:1009AE00C2908FA0D2917F967E00120980C2917F55
:0609BE00967E0002098094
:04097C007F407E4BEF
:10098000E4FDFCC3ED9FEE6480F8EC6480985007B2
:070990000DBD00010C80EC1D
:01099700223D
:1008E000020800E493A3F8E493A34003F68001F226
:1008F00008DFF48029E493A3F85407240CC8C33319
:10090000C4540F4420C8834004F456800146F6DFE7
:10091000E4800B01020408102040809009C4E47EAA
:10092000019360BCA3FF543F30E509541FFEE493DC
:10093000A360010ECF54C025E060A840B8E493A3A3
:10094000FAE493A3F8E493A3C8C582C8CAC583CACE
:10095000F0A3C8C582C8CAC583CADFE9DEE780BE86
:0109C800002E
:00000001FF
